:020000040800F2
:10000000702E002081140008D1040008D3040008D9
:10001000D7040008DB040008DF040008000000002B
:10002000000000000000000000000000E3040008E1
:10003000E504000800000000E7040008E9040008E7
:100040009B1400089B1400089B1400089B140008D4
:100050009B1400089B1400089B1400089B140008C4
:100060009B1400089B1400089B1400089B140008B4
:100070009B1400089B1400089B1400089B140008A4
:100080009B1400089B1400089B1400089B14000894
:100090009B1400089B1400089B1400089B14000884
:1000A0009B1400089B1400089B1400089B14000874
:1000B0009B1400089B1400089B1400089B14000864
:1000C0009B1400089B1400089B1400089B14000854
:1000D0009B140008F71300089B1400089B140008E9
:1000E0009B1400089B1400089B14000800F002F801
:1000F00000F03FF80AA090E8000C82448344AAF183
:100100000107DA4501D100F034F8AFF2090EBAE880
:100110000F0013F0010F18BFFB1A43F0010318473B
:100120007026000090260000103A24BF78C878C1DD
:10013000FAD8520724BF30C830C144BF04680C60ED
:10014000704700000023002400250026103A28BF35
:1001500078C1FBD8520728BF30C148BF0B60704739
:10016000692901F0E187002070471FB51FBD10B558
:1001700010BD02F0A1F81146FFF7F7FF00F008F8F4
:1001800002F0BFF803B4FFF7F2FF03BC01F0D8F8A8
:100190000EB54FF4A06001F017FF01F067F84FF4BF
:1001A000E13001F0DCF800F091FA00F000FD10B150
:1001B0008CA001F079FF9249002000F003FC10B1FF
:1001C00090A001F071FF00F028FC10B197A001F0A1
:1001D0006BFF00279B4D00264FF4FA709A49086088
:1001E0009AA001F061FF00242FE000BF9B48006847
:1001F0000128FBD09A4A02EB84019A4A02EB840060
:1002000000F068FC974850F82400A84202D29548B4
:1002100050F82450934850F82400B04202D9914835
:1002200050F8246090A001F03FFF8E4850F8241051
:100230008FA001F039FF8FA001F036FF884850F8F9
:1002400024108EA001F030FF641C7F4800688442B7
:10025000CBDB844850F824808A488B498B4A8C4BEE
:10026000CDE9002102907F4A774801687C4800F080
:100270007DFDB5E00024734D0026642420E079481C
:1002800050F82410A4F16400764A42F82010744813
:1002900050F82410A4F16400714A42F8201071480B
:1002A00050F82400A84202D26E4850F824506D48FD
:1002B00050F82400B04202D96A4850F82460641C07
:1002C000B4F5FA7FDBDB4FF4C87479E0601E654952
:1002D00051F8208000BF614800680128FBD0604AC7
:1002E00002EB84015F4A02EB840000F0F3FB5D48FF
:1002F00050F8240040451DD95A4951F82410A1EB6B
:10030000080002F0E9F88146701B02F0E5F8824629
:100310005146484602F002F881465E49484602F0DE
:10032000EFF88146484602F0BBF83F1A002F1EDA6C
:1003300000271CE04B4951F82410A8EB010002F003
:10034000CBF88146701B02F0C7F8824651464846FA
:1003500001F0E4FF81464F49484602F0D1F881465A
:10036000484602F09DF80744FF2F00DDFF273EA01E
:1003700001F09AFE3B4850F824103DA001F094FE95
:100380003CA001F091FE364850F8241038A001F04E
:100390008BFE3D48016840A001F086FE394890F987
:1003A000001040A001F080FE3948016841A001F032
:1003B0007BFE364890F9001041A001F075FE641CE8
:1003C000B4F5FA7F82DB2F482F49304A304BCDE914
:1003D00000210290234A1C480168214800F0C6FC15
:1003E00048E700006D617833303130325F726573F9
:1003F0006574206661696C6564210D0A0000000067
:1004000011000020726561645F7265672052454784
:100410005F494E54525F5354415455535F312066E7
:1004200061696C6564210D0A000000006D6178331C
:10043000303130325F696E6974206661696C656461
:10044000210D0A00FFFF030000000020B2C9BCAF6D
:10045000353030B8F6D1F9B1BE0D0A001C81214209
:1004600048000020180800207265643D000000006C
:10047000256900002C2069723D00000025690D0AE5
:1004800000000000100000200C00002008000020E8
:100490000400002000007F432C2048523D25692C99
:1004A00020000000485276616C69643D25692C206B
:1004B0000000000053704F323D25692C20000000E1
:1004C00053504F3256616C69643D25690D0A000036
:1004D000704700BFFEE700BFFEE700BFFEE700BFBA
:1004E000FEE7704770477047704700000CB500206A
:1004F000019000906C48006840F480306A490860C0
:1005000000BF6948006800F4003000900198401C6A
:100510000190009818B90198B0F5A06FF1D1624828
:10052000006800F4003010B10120009001E00020CC
:1005300000900098012843D15C48006840F010000A
:100540005A4908600846006820F003000860084621
:10055000006840F002000860534840685249486013
:100560000846406848600846406840F4806048603B
:100570000846406820F47C1048600846406840F413
:10058000E81048600846006840F08070086000BFCE
:100590004548006800F000700028F9D042484068E3
:1005A00020F00300404948600846406840F00200DF
:1005B000486000BF3C48406800F00C000828F9D1B2
:1005C0000CBD10B5FFF792FF10BD10B5364800689E
:1005D00040F001003449086008464068344908404A
:1005E0003149486008460068324908402E49086091
:1005F0000846006820F4802008600846406820F41F
:10060000FE0048604FF41F008860FFF7DAFF4FF0EC
:1006100000602949086010BD10B5002100200022AB
:10062000214B5B6803F00C0121B1042906D0082995
:1006300028D107E0214B224C236027E01F4B204CA0
:10064000236023E0184B5B6803F47010164B5B6863
:1006500003F48032022303EB904022B9194B434349
:10066000174C23600DE0104B5B6803F4003323B19B
:10067000144B4343124C236003E0104B4343104C94
:10068000236003E00D4B0E4C236000BF00BF064B00
:100690005B68C3F303130C4CE15C094B1B68CB4054
:1006A000074C236010BD00000010024000200240F3
:1006B0000000FFF8FFFFF6FE08ED00E000127A00F0
:1006C0001400002000093D001800002008B5012199
:1006D000082001F011FA4FF44070ADF8000010202E
:1006E0008DF8030003208DF802006946964800F05B
:1006F00047FF8020ADF8000004208DF80300694614
:10070000914800F03DFF0120904908609049C1F8F0
:10071000A40108BD10B58C48001D006820F0F00051
:100720008949091D08600846006840F030000860EB
:1007300001208649091D08608549C1F8A0010420EF
:1007400000F0ADFD00208149091D0860042000F083
:10075000A6FD00207E49C1F8A00110BD10B57A4861
:10076000001D006820F0F0007749091D0860084668
:10077000006840F030000860002074490860744947
:10078000C1F8A401042000F08AFD01206F4908602F
:100790006F49C1F8A401042000F081FD10BD10B51F
:1007A00000246948001D006820F0F0006649091D1A
:1007B00008600846006840F0800008600120634936
:1007C000091D086000F06BFD01206149C1F8A0011E
:1007D00000F065FD07E0601CC4B2FA2C03DDFFF7F2
:1007E000BDFF012010BD59487C3800680028F2D1B7
:1007F0005649086000BFF5E710B50020534908606E
:100800005148001D006820F0F0004F49091D0860A4
:100810000846006840F03000086000204C49C1F8EC
:10082000A401022000F03BFD01204849086002209D
:1008300000F035FD00204649C1F8A00110BD10B5FB
:100840000020424908604048001D006820F0F00088
:100850003D49091D08600846006840F03000086006
:1008600001203B49C1F8A401022000F018FD01203D
:1008700036490860022000F012FD00203449C1F81A
:10088000A00110BD70B504462F48001D006820F07F
:10089000F0002D49091D08600846006840F030004E
:1008A0000860002029490860002517E0E009274971
:1008B000091D08606006040E022000F0F0FC012013
:1008C0002349C1F8A001022000F0E9FC00201F49E3
:1008D0000860022000F0E3FC681CC5B2082DE5DBCF
:1008E00070BD70B5054600241748001D006820F053
:1008F000F0001549091D08600846006840F08000B6
:100900000860002616E0002010490860022000F070
:10091000C6FC01200E49C1F8A0016006040E0B4878
:100920007C38006808B1601CC4B2012000F0B7FC3C
:10093000701CC6B2082EE6DB15B1FFF780FF01E0A0
:10094000FFF75AFF204670BD000C0140A0812142F4
:100950000080214208B50121082001F0CDF8802057
:10096000ADF8000004208DF8030003208DF802008C
:100970006946944800F004FE08BD2DE9F0410546A3
:100980000C46FFF7C7FEAE20FFF77CFFFFF707FF1F
:1009900006462846FFF776FFFFF701FF0746204689
:1009A000FFF770FFFFF7FBFE8046FFF7D7FE1EB98B
:1009B00017B9B8F1000F03D04FF0FF30BDE8F08158
:1009C0000020FBE72DE9F04105460C46FFF7A2FEAB
:1009D000AE20FFF757FFFFF7E2FE06462846FFF777
:1009E00051FFFFF7DCFE0746FFF794FEAF20FFF74D
:1009F00049FFFFF7D4FE80460020FFF772FF20700A
:100A0000FFF7ACFE1EB917B9B8F1000F03D04FF0D5
:100A1000FF30BDE8F0810020FBE710B5FFF79AFF3B
:100A2000C0210220FFF7A9FF10B14FF0FF3010BD29
:100A300000210320FFF7A1FF10B14FF0FF30F6E7D0
:100A400000210420FFF799FF10B14FF0FF30EEE7CF
:100A500000210520FFF791FF10B14FF0FF30E6E7CE
:100A600000210620FFF789FF10B14FF0FF30DEE7CD
:100A70000F210820FFF781FF10B14FF0FF30D6E7BC
:100A800003210920FFF779FF10B14FF0FF30CEE7C7
:100A900027210A20FFF771FF10B14FF0FF30C6E7A2
:100AA00024210C20FFF769FF10B14FF0FF30BEE7A3
:100AB00024210D20FFF761FF10B14FF0FF30B6E7A2
:100AC0007F211020FFF759FF10B14FF0FF30AEE744
:100AD0000020ACE72DE9FE4304460D4600202060CF
:100AE000286002A9FFF76EFF02A90120FFF76AFF45
:100AF00007208DF80000FFF70DFEAE20FFF7C2FEC5
:100B0000FFF74DFE07469DF80000FFF7BBFEFFF71D
:100B100046FE8046FFF7FEFDAF20FFF7B3FEFFF76E
:100B20003EFE81460020FFF7DCFE064636042068C4
:100B3000304420600020FFF7D4FE064636022068CD
:100B4000304420600020FFF7CCFE06462068304489
:100B500020600020FFF7C5FE0646360428683044B2
:100B600028600020FFF7BDFE0646360228683044A4
:100B700028600020FFF7B5FE0646FFF7EFFD286866
:100B8000304428602068C0F3110020602868C0F35A
:100B9000110028602FB9B8F1000F02D1B9F1000F90
:100BA00003D04FF0FF30BDE8FE830020FBE710B517
:100BB00040210920FFF7E1FE10B14FF0FF3010BDDA
:100BC0000020FCE7000C014030B50C46012213E088
:100BD00050F82230114605E04D1E50F8255040F8DF
:100BE0002150491E002904DD4D1E50F825509D421C
:100BF000F2DC40F82130521CA242E9DB30BDF0B5F6
:100C000003461546012217E051F82240104605E040
:100C1000461E51F8266041F82060401E002808DD7D
:100C200053F82470461E51F8266053F82660B742E8
:100C3000EEDC41F82040521CAA42E5DBF0BD2DE974
:100C4000F04F05460C469246984629465046226883
:100C5000FFF7D5FF4FF0FF3621E0D4F800B0701C4D
:100C60002060771C18E055F82710701C10B94FF061
:100C7000FF3001E055F82600A1EB0009C14503DC77
:100C8000C8F10000814506DA55F827102268501C8B
:100C9000206045F822107F1C5F45E4DB761C20684D
:100CA000B042DADC28462168FFF78EFFBDE8F08FFE
:100CB000F0B505461C46059E012000270F6030E078
:100CC00052F82070B7422BDD52F820C0471E52F870
:100CD0002770BC4524DD012300E05B1CC718A74238
:100CE00007DA52F8207000EB030C52F82CC067456D
:100CF000F3D052F8207000EB030C52F82CC067457B
:100D00000CDD0F680F2F09DAD1F800C00CF10107D4
:100D10000F6045F82C005F1C384402E0184400E0E6
:100D2000401C671E8742CBDCF0BD2DE9F847054625
:100D30000C4616461F46DDE90A9ADDF824803B463C
:100D4000324621462846CDF80080FFF7B1FF4B46DA
:100D5000324621462846FFF772FF2068504501DAE7
:100D6000206800E050462060BDE8F8872DE9FF4F7D
:100D7000C6B08846994600204590002406E0469873
:100D800050F82410459808444590641C4445F6DB0F
:100D90004598B0FBF8F04590002408E0469850F8DC
:100DA00024104598081AFE4941F82400641C444563
:100DB000F4DB002417E0FA4850F824100246601CC7
:100DC00052F820000144A01C52F820000144E01C0D
:100DD00052F820000F183846F91707EB9171891067
:100DE00042F82410641CB4F5F87FE4DB00240AE028
:100DF000EB49601C51F8200051F82410401AE949D1
:100E000041F82400641CB4F5F77FF1DD00240EE006
:100E1000E44951F824200B46611C53F82110501866
:100E200000EBD07149101A4642F82410641CB4F546
:100E3000F77FEDDB00251BE0002043902C460BE004
:100E4000D84850F82410601BD74A32F81020439835
:100E500001FB12004390641C681D8442F0DB40F2E9
:100E60007A41439890FBF1F0CE4941F825006D1C82
:100E7000B5F5F47FE0DD00204190002410E0C94882
:100E800050F82400002803DDC64850F8240003E091
:100E9000C44850F824004042419908444190641CE1
:100EA000B4F5F77FEBDD40F2EF11419890FBF1F0E4
:100EB000419005210822419840F2EF13CDE901212C
:100EC0000090B84A40A912A8FFF72FFF0020119008
:100ED0004098022821DB01240BE012A850F82410CE
:100EE000601E12AA52F82000091A119808441190A5
:100EF000641C40988442F0DB4098401E119991FB9D
:100F0000F0F0119041F27071119891FBF0F154984A
:100F1000016001215598017005E0A44954980160D1
:100F2000002155980170002407E012A850F8240011
:100F3000801C30A941F82400641C40988442F4DBF2
:100F400000240CE0469850F82400954941F824000C
:100F5000489850F82400964941F82400641C444500
:100F6000F0DB0020429000242DE00120449030A8C6
:100F700050F824A04FF080703F900AF10500B0F5C2
:100F8000F77F1FDC0A3800281CDD054611E0844885
:100F900050F825103F9881420ADA449808B10020A1
:100FA00044907F4850F825003F9021A840F82450F5
:100FB0006D1C0AF105008542E9DB449810B942989E
:100FC000401C4290641C40988442CEDB4298022828
:100FD00008DA7648C9F800000021539801704AB039
:100FE000BDE8F08F00242EE06D4951F824200B4617
:100FF000611C53F821100A44A11C53F821100A4423
:10100000E11C53F821105018C11700EB91718910A1
:101010001A4642F82410664951F824200B46611CF8
:1010200053F821100A44A11C53F821100A44E11C72
:1010300053F821105018C11700EB917189101A460E
:1010400042F82410641CB4F5F87FCDDB0020049036
:101050000026002404E0002005A941F82400641CB7
:10106000052CF8DB00240DE021A850F82400B0F591
:10107000FA7F06DD4D48C9F8000000215398017041
:10108000ADE7641C42988442EEDB0024AEE04FF0F2
:101090007F400D900C9021A9601C51F8200051F860
:1010A0002410401A0A2879DD21A850F8245016E0AF
:1010B0003B4850F825100C98814204DD384850F820
:1010C00025000C900A953A4850F825100D98814259
:1010D00004DD374850F825000D900B956D1C21A9B3
:1010E000601C51F82000A842E2DC601C51F820008E
:1010F0002F4951F8200021A951F824102C4A52F808
:101100002110401A21A951F824200B99891A48432B
:10111000109021A9601C51F8200051F82410411AA8
:10112000109890FBF1F021A951F82410204A52F8B0
:1011300021100844109011460B9851F82010109877
:10114000081A109021A9601C51F82000144951F888
:10115000200021A951F82410114A52F82110401AF8
:1011600021A951F824200A99891A48430F9021A9EE
:10117000601C51F8200051F82410411A0F9890FB80
:10118000F1F021A951F82410054A52F82110084421
:101190000F9011460B9851F820100BE025E000004D
:1011A000A8170020E80F00209826000819FCFFFF70
:1011B000781F00200F98081A0F900C991098484338
:1011C000C01103900D990F984843C711002F0CDDF3
:1011D000052E0ADA039840B164210398484390FB36
:1011E000F7F005A941F82600761C641C4298401EC1
:1011F000A0423FF74CAF314605A8FFF7E5FC30466B
:1012000006EBD0714FEA610BBBF1010F0CDDABF1C6
:10121000010105AA52F8211052F82B20881800EB82
:10122000D0714910049103E005A850F82B000490F8
:10123000049802280DDD0498B8280ADA09490498B0
:10124000085C0E900E98C9F80000012153980170B7
:1012500005E00548C9F8000000215398017000BF5F
:10126000BDE60000D626000819FCFFFF10B56FF0A0
:10127000040000F0F8FE2E4800682E49B0FBF1F0A3
:101280002D4908700846007800EB4001C1EBC01002
:101290004FF6FF7101EAC0002849088010BD0146E1
:1012A000254A12784A434FF0E0235A6100229A619E
:1012B0001A46126942F001021A6100BF4FF0E022A3
:1012C000106900F001021AB100F48032002AF5D052
:1012D0004FF0E022126922F001024FF0E0231A6180
:1012E00000229A6170470146144A12884A434FF01F
:1012F000E0235A6100229A611A46126942F0010203
:101300001A6100BF4FF0E022106900F001021AB12B
:1013100000F48032002AF5D04FF0E022126922F06A
:1013200001024FF0E0231A6100229A617047000029
:101330001400002000127A00280000202A0000205B
:10134000014600BF704700BF494A128802F04002C0
:10135000002AF9D0C2B2464B1B1D1A80704710B547
:1013600086B00446012144F2040000F0C5FB4FF4AE
:101370000070ADF8140003208DF8160018208DF8C9
:10138000170005A93B4800F0FBF84FF48060ADF86A
:10139000140004208DF8170005A9364800F0F0F875
:1013A00025208DF8000003208DF801008DF8020043
:1013B00001208DF80300684600F00BFE0194002028
:1013C000ADF80800ADF80A00ADF80C00ADF810005B
:1013D0000C20ADF80E0001A9254800F034FC0122D4
:1013E00040F22551224800F0C6FC0121204800F0BF
:1013F000B6FC06B010BD10B540F225511C4800F0F7
:101400009FFD10B31A4800F01BFDC4B21A480088B3
:1014100000F40040C8B91848008800F4804060B16A
:101420000A2C03D000201449088020E012480088CC
:1014300040F400401049088019E00D2C06D10E48F8
:10144000008840F480400C49088010E00A48008879
:10145000C0F30D0009490C5407480088401C064998
:10146000088008460088C72801DD0020088010BDDC
:1014700000380140000801403000002048270020CB
:101480000948804709480047FEE7FEE7FEE7FEE718
:10149000FEE7FEE7FEE7FEE7FEE7FEE70448054954
:1014A000054A064B70470000CB050008ED00000818
:1014B00070280020702E0020702A0020702A002042
:1014C00010B50446CC48844208D10121042000F024
:1014D0002DFB0021042000F029FB46E0C748844290
:1014E00008D10121082000F021FB0021082000F094
:1014F0001DFB3AE0C248844208D10121102000F0CF
:1015000015FB0021102000F011FB2EE0BD488442A5
:1015100008D10121202000F009FB0021202000F04B
:1015200005FB22E0B848844208D10121402000F0A8
:10153000FDFA0021402000F0F9FA16E0B348844299
:1015400008D10121802000F0F1FA0021802000F074
:10155000EDFA0AE0AE48844207D10121801500F07F
:10156000E5FA0021A01500F0E1FA10BD10B5012147
:10157000084600F0DBFA0021012000F0D7FA10BD88
:101580002DE9F0410246002500260020002300241A
:10159000002791F803C00CF00F0591F803C00CF080
:1015A000100CBCF1000F03D091F802C04CEA050505
:1015B00091F800C0BCF1000F31D0146800202BE07E
:1015C0004FF0010C0CFA00F3B1F800C00CEA03066E
:1015D0009E4220D183004FF00F0C0CFA03F7BC435E
:1015E00005FA03FC4CEA040491F803C0BCF1280F8F
:1015F00006D14FF0010C0CFA00FCC2F814C00AE04E
:1016000091F803C0BCF1480F05D14FF0010C0CFA62
:1016100000FCC2F810C0401C0828D1D31460B1F8F7
:1016200000C0BCF1FF0F34DD546800202EE000F153
:10163000080C4FF0010808FA0CF3B1F800C00CEAEE
:1016400003069E4221D183004FF00F0C0CFA03F7E2
:10165000BC4305FA03FC4CEA040491F803C0BCF156
:10166000280F05D100F1080C08FA0CF8C2F8148014
:1016700091F803C0BCF1480F07D100F1080C4FF0FE
:10168000010808FA0CF8C2F81080401C0828CED3D4
:101690005460BDE8F0814FF6FF7101800221817036
:1016A0000421C17070470246002093680B400BB1C3
:1016B000012000E0002070470146886880B2704732
:1016C00002460020D3680B400BB1012000E000204F
:1016D00070470146C86880B2704701617047416138
:1016E00070470AB1016100E041617047C160704715
:1016F0004FF480320A43826181618261826982692A
:10170000704702460020434B18684FF6807318401C
:1017100040EA021008433F4B186070473E49C861D9
:101720007047F0B50A46002300240021002500F090
:101730000046B6F1004F02D1364EF16901E0354E58
:101740007168C0F3034583B200F44016B6F5401F3C
:1017500008D121F070612F4E766826F070662D4F0B
:101760007E6012E000F48016B6F5801F06D10326D5
:1017700006FA05F4A14341F0706106E0460D36011A
:1017800003FA06F6B14341F0706122B1460D36010D
:1017900003FA06F6314300F00046B6F1004F02D1DD
:1017A0001C4EF16101E01B4E7160F0BD30B50022AE
:1017B0008B071C0F0F2303FA04F2164B08338C100F
:1017C00053F824309343134C08348D1044F82530DB
:1017D00023468C1053F824308C07240F00FA04F4AD
:1017E00023430C4C08348D1044F8253030BD0A4991
:1017F000DC3108607047000000080140000C014027
:10180000001001400014014000180140001C01407C
:10181000002001400000014000002042DF48006835
:1018200040F00100DD49086008464068DC49084096
:10183000DA49486008460068DA490840D749086034
:101840000846006820F4802008600846406820F4BC
:10185000FE0048604FF41F0088607047CF49096858
:1018600021F48031CD4A11601146096821F48021AC
:101870001160B0F5803F03D0B0F5802F0ED106E0A7
:10188000C649096841F48031C44A116007E0C34980
:10189000096841F4A021C14A116000E000BF00BF07
:1018A000704710B501460022002300204A11012A8A
:1018B00002D1BA4C236806E0022A02D1B74C236A4F
:1018C00001E0B64C636A01F01F02012494401C4001
:1018D0000CB1012000E0002010BD38B500200090C0
:1018E0000024002500BF3120FFF7DBFF05460098EC
:1018F000401C00900098B0F5A06F01D0002DF2D0F0
:101900003120FFF7CEFF08B1012400E0002420467B
:1019100038BD01460020A14A106820F0F80040EAD6
:10192000C10010607047A04908607047024600205F
:101930009A4B586820F47C1042EA01031843974BF5
:101940005860704798490866704701460020934ADE
:10195000506820F003000843506070478F4840688B
:1019600000F00C007047014600208C4A506820F0BF
:10197000F00008435060704701460020874A5068D5
:1019800020F4E06008435060704701460020834A1D
:10199000506820F4605040EAC1005060704729B19F
:1019A0007E4A527A02437D4B5A7204E07B4A527A55
:1019B00082437A4B5A7270477B49D831086070472E
:1019C00001460020754A506820F4404008435060AA
:1019D00070470021714A20321170704A82F820103D
:1019E000012802D004280AD104E001216B4A2032E8
:1019F000117005E00521694A2032117000E000BF36
:101A000000BF70476949086070476449096A01432B
:101A1000624A11627047654944390860704730B5C1
:101A200000210022002400235C4D6D6805F00C01AC
:101A300021B1042905D0082923D105E05C4D0560BA
:101A400022E05B4D05601FE0544D6D6805F4701297
:101A5000524D6D6805F48034022505EB92421CB9A5
:101A6000544D554305600BE04C4D6D6805F4003551
:101A70001DB1504D5543056002E04D4D5543056085
:101A800002E04B4D056000BF00BF444D6D6805F09E
:101A9000F0010909484D6B5C0568DD4045603F4D2C
:101AA0006D6805F4E061090A434D6B5C4568DD40F3
:101AB00085603A4D6D6805F46051C90A3E4D6B5C16
:101AC0004568DD40C560354D6D6805F44041890BC2
:101AD0003A4D6B5CC568B5FBF3F5056130BD29B1C6
:101AE0002E4A526902432D4B5A6104E02B4A526937
:101AF00082432A4B5A61704729B1284A92690243AE
:101B0000264B9A6104E0254A92698243234B9A61ED
:101B1000704729B1214AD2690243204BDA6104E0BF
:101B20001E4AD26982431D4BDA61704729B11B4AB4
:101B3000D2680243194BDA6004E0184AD268824343
:101B4000164BDA60704729B1144A12690243134BED
:101B50001A6104E0114A12698243104B1A617047FE
:101B600012494039086070470F49C86470470B49F3
:101B7000C87170470948406A40F080700749486260
:101B8000704701460020054A92680A400AB10120C8
:101B900000E0002070470149887270470010024041
:101BA0000000FFF8FFFFF6FE0000424280044242C0
:101BB00000127A0000093D0032000020420000209F
:101BC00010B50446FB48844209D101218803FFF780
:101BD000ADFF00214FF48040FFF7A8FF32E0F64848
:101BE000844209D101214804FFF7ADFF00214FF4E1
:101BF0000030FFF7A8FF25E0F048844209D1012119
:101C00008804FFF7A0FF00214FF48020FFF79BFF1F
:101C100018E0EB48844209D10121C804FFF793FF83
:101C200000214FF40020FFF78EFF0BE0E5488442CF
:101C300008D101210805FFF786FF00214FF480102D
:101C4000FFF781FF10BD2DE9F04786B005460E462F
:101C50000024A24600BFA1460027B08900B100BF02
:101C60002F462C8A4CF6FF700440F08804432C82E7
:101C7000AC894EF6F3100440B0883189084371896D
:101C800008430443AC81AC8A4FF6FF400440B0895E
:101C90000443AC8201A8FFF7C2FEC648874202D1C6
:101CA000DDF810A001E0DDF80CA0A88900F40040E8
:101CB00040B10AEBCA0000EB0A1031684900B0FBE2
:101CC000F1F807E00AEBCA0000EB0A10316889005E
:101CD000B0FBF1F86420B8FBF0F0040120096421A6
:101CE00001FB1089A88900F4004040B1322000EBCC
:101CF000C900B0FBF1F000F00700044308E0322017
:101D000000EB09106421B0FBF1F000F00F00044378
:101D10002C8106B0BDE8F0874FF416510160002118
:101D20008180C18001810C21418100218181704726
:101D300010B502460020108A4FF2FF0318400B88AE
:101D40004C8823438C882343CC8823431843108238
:101D500010BD0021018041808180C180704721B188
:101D6000828942F40052828104E082894DF6FF7339
:101D70001A4082817047F0B50346002400260025F2
:101D8000002040F66A17B94200D100BF1846C1F3DF
:101D9000421401F01F06012707FA06F5012C01D1B4
:101DA0000C3004E0022C01D1103000E014301AB1E4
:101DB00007682F43076002E00768AF430760F0BD84
:101DC0001AB1838A0B43838202E0838A8B43838226
:101DD0007047028A4FF6F0731A400282028A0A4361
:101DE0000282704782894FF2FF731A408281828992
:101DF0000A438281704721B1828942F002028281C6
:101E000004E082894FF6FD731A4082817047028A8E
:101E10004FF6DF731A400282028A0A430282704739
:101E200021B1028A42F48042028204E0028A4BF627
:101E3000FF731A4002827047C1F308028280704724
:101E400001468888C0F308007047818941F001018C
:101E500081817047028BD2B20283028B42EA012257
:101E600002837047028B02F47F420283028B0A4393
:101E70000283704721B1828A42F02002828204E00C
:101E8000828A4FF6DF731A408282704721B1828ABC
:101E900042F01002828204E0828A4FF6EF731A4009
:101EA0008282704721B1828A42F00802828204E075
:101EB000828A4FF6F7731A408282704721B1828975
:101EC00042F40042828103E08289C2F30E028281E1
:101ED000704721B1828A42F40062828204E0828AE1
:101EE0004FF2FF731A4082827047828A4FF6FB736B
:101EF0001A408282828A0A438282704721B1828A92
:101F000042F00202828204E0828A4FF6FD731A4098
:101F10008282704702460020B1F5007F00D100BFE9
:101F200013880B400BB1012000E00020704701F442
:101F30000072B2F5007F00D100BFCA430280704733
:101F400070B50246002400230025002040F66A16E2
:101F5000B14200D100BFC1F3421501F01F030126B9
:101F600006FA03F3012D02D19689334006E0022DD3
:101F700002D1168A334001E0968A33400C120126C2
:101F800006FA04F41688344013B10CB1012000E0C5
:101F9000002070BD10B50022002340F66A14A14253
:101FA00000D100BF0A1201249440A3B2DC43048094
:101FB00010BD0000003801400044004000480040CF
:101FC000004C00400050004031490143314A11604B
:101FD000704770B5002100230F22C47804B32D4C44
:101FE000246804F4E064C4F5E064210AC1F1040348
:101FF000CA40447804FA03F184781440214309016B
:10200000254C0678A155047804F01F050124AC4046
:1020100005786D11AD0005F1E025C5F8004109E036
:10202000047804F01F050124AC401C4D067876119D
:1020300045F8264070BD1A4A0A400243154B1B1F43
:102040001A60704739B1134A121D12680243114BCE
:102050001B1D1A6006E00F4A121D126882430D4BC9
:102060001B1D1A607047042808D14FF0E021096950
:1020700041F004014FF0E022116107E04FF0E02150
:10208000096921F004014FF0E0221161704700005E
:102090000000FA050CED00E000E400E080E100E063
:1020A00080FFFF1F704700000FB4044910B503AA5A
:1020B000029800F0D3F810BC5DF814FB2C0000204F
:1020C0002DE9F0410E460446002020622046E168DA
:1020D000884730B3252805D0D4E901219047206AEC
:1020E000401CF2E7E168204600278847050018D029
:1020F000A5F14100192802D820354FF40067324677
:10210000294620462760FEF72BF840B1012804D06D
:10211000F61D26F007060836D8E7361DD6E728460E
:10212000DAE7206ABDE8F0812DE9F0410646002497
:1021300010687529314616A510D0AFF3008000282D
:1021400002DA404213A507E031688A0701D512A5DB
:1021500002E0490704D511A5012401E0AFF3008096
:1021600000210A2206F1240709E0B0FBF2FCB0FBD3
:10217000F2F302FB1C00303078541846491C00284A
:10218000F3D123462A463046BDE8F04100F00CB8B2
:10219000000000002D0000002B00000020000000C7
:1021A00070477047704770472DE9F0470D469946D4
:1021B0009246044600F124080168880604D5E069C7
:1021C00021F01001216000E00120A84201DD471B41
:1021D00000E00027A1697A1902EB0900081AA06142
:1021E0002078C00602D42046AFF30080002608E025
:1021F000D4E901211AF806009047206A401C761C99
:1022000020624E45F4DB2078C0060AD52046AFF3A5
:10221000008006E0D4E9012130209047206A401C6C
:102220002062381EA7F10107F4DC07E0D4E90121A0
:1022300018F805009047206A401C2062281EA5F16E
:102240000105F3DC2046AFF300802078000602D5BC
:102250000220BDE8F0870120FBE70000074B70B5C6
:102260000D467B4400F011F80446284600F020F8A3
:1022700010B14FF0FF3070BD204670BDE1F0FFFFA0
:1022800001694A1C02610878704700B58FB0CDE93A
:1022900001310021059105497944CDE9031011462A
:1022A0006846FFF70DFF0FB000BD0000E5FFFFFF20
:1022B000007B00F080007047754600F02BF8AE46BA
:1022C00005006946534620F00700854618B020B542
:1022D000FFF7E4F8BDE820404FF000064FF000079C
:1022E0004FF000084FF0000B21F00701AC46ACE8BE
:1022F000C009ACE8C009ACE8C009ACE8C0098D462B
:10230000704710B50446AFF300802046BDE810408A
:10231000FDF738BF00487047102800204FF47F0CAD
:102320001CEAD0121EBF1CEAD11392EA0C0F93EAEA
:102330000C0F00F0858090EA010F48BF42F48072D4
:1023400040F4000C41F400002CF07F4120F07F406D
:1023500000B58142A2EB03020FF2081CACEB504E19
:10236000C0F100009EF800E04FEA4E0E00FB0EFCAC
:1023700038BF49004FEA2C1C02F5FA020CFB0EF3A1
:102380004FEACE1E4FEA112C4FEAC1210EEB635EDD
:1023900042EB22420EFB0CFC4FEA1C5300FB0311E4
:1023A0004FEA112C4FEA01310EFB0CFC4FEADC4CDA
:1023B00000FB0C11C14228BF09184CEB03335DF838
:1023C00004EB10EB410143EBC250B2F57C0F38BF78
:1023D000704729D512F0F00F1CBF00F1C04000F08B
:1023E00000407047008182838485868788898B8C32
:1023F0008D8E8F919293959697999A9C9D9FA0A26E
:10240000A3A5A7A8AAACAEB0B2B3B5B7B9BCBEC0BD
:10241000C2C5C7C9CCCED1D4D7D9DCDFE2E6E9EC5E
:10242000F0F3F7FAFE0000004FEA400C0CF1807C5C
:10243000BCF17E4F28BF7047B0F1C04000F027B913
:1024400090EA010F0CEAD11348BF42F48072624552
:1024500038BF634507D213F47F0F16D080EA01001E
:1024600000F00040704710B500F0CBF8097EFC3E4C
:1024700000F005B880EA010000F00040704780EAF3
:10248000010000F0004000F002B912F47F0F04BF19
:102490000248704780EA010000F0F9B80000C07FF0
:1024A00041000B0ED3F19E0208D950F400034FEA0D
:1024B000032323FA02F048BF4042704710B500F0F2
:1024C000A0F800BF49922480002070476FF00042BE
:1024D00082EA200070470000B0FA80F310FA03F29D
:1024E000C3F19D030AD0D90501EB1220530638BF72
:1024F000704700F1010008BF20F0010070470000A4
:102500004FF47F0C1CEAD0121EBF1CEAD11392EAD2
:102510000C0F93EA0C0F00F0478090EA010F48BFC0
:1025200042F480724FF0004C4CEA00204CEA01214A
:1025300002EB0302A0FB0113A2F50002002918BF61
:1025400043F001035B0028BF4FEA330342EB224212
:102550005FEA132C4CEBC2502EBFBCEB436FB2F5BD
:102560007C0F70474FEA036CBCF1004F08BF20F0AE
:102570000100B2F57C0F38BF70470BD582F0FF0227
:1025800012F5803FC8BF704700F1C040D8BF00F0CF
:102590000040704700F5000C5FEA4C0C48BF7047E4
:1025A000B0F1C04000F073B890EA010F0CEAD1130B
:1025B00048BF42F48072624538BF634504D280EA66
:1025C000010000F00040704710B500F01AF800BF9D
:1025D0008900013E00F007B800F009B85FEA410C3D
:1025E0005FEA1C6C08D080EA010000F050B85FEA96
:1025F000400C5FEA1C6CF6D14FF00040A0F5800063
:1026000070470EF1020E2EF0030E5EF8044B2442CA
:1026100004D44FEA4102B2F17F4F11D84FEA400390
:10262000B3F17F4F0CD80ED14FEAD07CB2F17F4F7F
:102630000CEB4C0C0CF1020C08BF4CEBD17C04E011
:102640004FF0080C01E04FEAD17C0CEB4C0324FA6C
:1026500003F404F00704B4F1040C06D20EEB840C6E
:10266000BDE810404CF0010C6047DFE80CF00708B3
:1026700002024FF00040A0F5800010BD0846420065
:1026800018BFD2F1807288BF00F0004010BDFF215A
:1026900041EAD050C005704729001401000214011E
:1026A0002900000000000000000000000000000001
:1026B000000000000000000000000000000000001A
:1026C000000000000000000000000000000000000A
:1026D0000000000000005F5F5F6060606161616139
:1026E00061626262626263636363636363636464BF
:1026F000646464646464646464646464646464649A
:10270000646463636363636363636262626262629D
:1027100061616161606060605F5F5F5E5E5E5D5DC4
:102720005D5C5C5C5B5B5A5A59595958585757560F
:102730005655555454535252515150504F4E4E4D80
:102740004C4C4B4A4A494848474645454443424217
:1027500041403F3E3E3D3C3B3A39383837363534D0
:10276000333231302F2E2D2C2B2A292827262524B1
:102770002322211F1E1D1C1B1A19171615141311B5
:10278000100F0E0C0B0A09070605030201000000DA
:10279000B0270008000000204800000028010008C1
:1027A000F827000848000020282E000044010008F7
:1027B0000000000000000000000000000000000019
:1027C0000000000000A24A04000000000000000019
:1027D00001020304060708090000000000000000D1
:1027E00000000000000001020304010203040607C8
:0827F0000809020406080000BC
:04000005080000ED02
:00000001FF
